:10000000FAC0000027C1000025C1000023C1000084
:1000100021C100001FC100001DC100001BC1000064
:1000200019C1000017C1000015C1000013C1000074
:1000300011C100000FC100000DC100000BC1000084
:1000400009C1000007C1000005C1000003C1000094
:1000500001C10000FFC00000FDC000009FC3000000
:10006000F9C00000F7C00000F5C00000F3C00000B8
:10007000F1C00000EFC00000EDC00000EBC00000C8
:10008000E9C00000E7C00000E5C00000E3C00000D8
:10009000E1C00000DFC00000DDC00000C9C30000F7
:1000A000D9C00000D7C00000D5C00000D3C00000F8
:1000B000D1C00000CFC00000CDC00000CBC0000008
:1000C000C9C00000C7C00000C5C00000C3C0000018
:1000D000C1C00000BFC00000BDC00000BBC0000028
:1000E000B9C0000058015B014A014E015201920162
:1000F0005F01630169016D01710177017B017F017E
:100100009201850189018D0100002200250028004F
:100110002B002E003100340002010000050108010F
:100120000B0105050505070508080808020202027B
:100130000A0A080804040404010101010101010183
:100140000303030303030303040707070C0C0C0C4E
:100150000C0C0C0C02020202060606060606060637
:100160000B0B0B0B0B0B0B0B0102102020080810C4
:100170002040102040800201020108040201010217
:1001800004081020408080402010080402018004F0
:10019000020180402010080402010804020101024B
:1001A0000408102040800102040810204080000054
:1001B0000A0B02090C0D0E080703040100000000E1
:1001C000000000000000000000000000000000002F
:1001D00000000000000000000000121110000000EC
:1001E000000000000000000000000000000000000F
:1001F00000000000380711241FBECFEFD1E2DEBFA0
:10020000CDBF00E00CBF22E0ACE1B2E001C01D9226
:10021000AD3EB207E1F712E0A0E0B2E0ECEBF3E1B3
:1002200000E00BBF02C007900D92AC31B107D9F7C7
:1002300010E0CBEFD0E000E005C021970109802F4E
:10024000FE019DD6CA3FD10780E00807B1F721D44F
:100250000C94DC09D5CE90E0FC01E255FE4F4491B0
:10026000FC01E859FE4F2491FC01EE5DFE4F949194
:10027000992309F465C0442309F454C050E0FA01FD
:100280003197E231F10508F04DC08827EE58FF4F55
:100290008F4F75C6809180008F7707C08091800056
:1002A0008F7D03C080918000877F809380003AC05B
:1002B00084B58F7702C084B58F7D84BD33C08091B3
:1002C000B0008F7703C08091B0008F7D8093B00025
:1002D00029C0809190008F7707C0809190008F7D1A
:1002E00003C080919000877F809390001BC0809115
:1002F000A0008F7707C08091A0008F7D03C0809100
:10030000A000877F8093A0000DC0809120018F778F
:1003100007C0809120018F7D03C080912001877FDD
:1003200080932001E92FF0E0EE0FFF1FE85FFE4F02
:10033000A591B4918FB7F894EC91E22BEC938FBF19
:1003400008953FB7F8948091E5029091E602A0915C
:10035000E702B091E80226B5A89B05C02F3F19F02F
:100360000196A11DB11D3FBFBA2FA92F982F882735
:10037000820F911DA11DB11DBC01CD0142E0660F90
:10038000771F881F991F4A95D1F7089508950895FA
:100390000895CF92DF92EF92FF920F931F93CF9326
:1003A000DF936C017A018B01C0E0D0E0CE15DF0550
:1003B00081F0D8016D918D01D601ED91FC910190F4
:1003C000F081E02DC6011995892B11F02196EECF11
:1003D0007E01C701DF91CF911F910F91FF90EF90A8
:1003E000DF90CF90089585ED8093BC008091BC0094
:1003F00084FDFCCF1092CB02089540917E02262FFF
:1004000030E0240F311D21323105DCF42091CB0284
:100410002430C9F4FC0180E090E0861758F4309154
:100420007E022191DC01A25ABD4FA30FB11D2C9376
:100430000196F3CF80917E02680F60937E0280E088
:10044000089581E0089582E008950895E091CF0233
:100450008091CE02E81730F4F0E0E25CFD4F80813D
:1004600090E008958FEF9FEF08959091CF028091D3
:10047000CE02981750F4E92FF0E0E25CFD4F2081A6
:1004800030E09F5F9093CF0202C02FEF3FEFC90192
:1004900008958091CE0290E02091CF02821B9109B5
:1004A0000895CF92DF92EF92FF920F931F93CF9315
:1004B000DF937C01CB018A0120913D02222389F048
:1004C000EB016B01C40ED51ECC15DD0561F0699101
:1004D000D701ED91FC910190F081E02DC7011995B4
:1004E000F3CF642F8ADFC801DF91CF911F910F9165
:1004F000FF90EF90DF90CF900895CF93DF931F92FE
:10050000CDB7DEB7698320913D022223D1F020913F
:10051000CC02203240F021E030E0FC013383228322
:1005200080E090E014C08091CD02E82FF0E0E35E1F
:10053000FD4F998190838F5F8093CD028093CC0291
:1005400004C061E0CE01019658DF81E090E00F9099
:10055000DF91CF91089580E090E00895CF93C82F68
:1005600081E080933D028FE180931C021092CD02C6
:100570001092CC0280ED92E0C0DF6C2F80ED92E013
:10058000BCDF9091CC02913208F044C08091CB0244
:100590008111FCCF82E08093CB0281E08093CA027C
:1005A0008FEF8093A1021092C3029093C202EDE1FB
:1005B000F2E0A2EAB2E080E0981721F021912D93B9
:1005C0008F5FFACF1092C4028091C4028E63809331
:1005D000C4028091C902813061F41092C9028091F5
:1005E000C4028093BB008091BC0083FDF8CF85ECF2
:1005F00001C085EE8093BC008091CB028230E1F394
:100600008091A1028F3F31F08091A102803211F0E0
:100610008091A1021092CD021092CC0210923D0264
:1006200083EC90E00197F1F7CF910895CF93DF939A
:10063000EC0188819981009709F041D519821882CF
:100640001D821C821B821A82DF91CF910895A0D651
:100650000F931F93CF93DF93EC01888199810097CB
:1006600029F02A813B812617370780F48B016F5FC1
:100670007F4FAED5009761F0998388831B830A83EF
:100680002C813D81232B11F4FC01108281E001C0FB
:1006900080E0DF91CF911F910F910895EF92FF922B
:1006A0000F931F93CF93DF936115710511F480E0D1
:1006B0001AC041155105B1F07B01EC018C819D817F
:1006C0008A01080F191FB801CE01C2DF882379F310
:1006D000288139818C819D81B701820F931F65D656
:1006E0001D830C8381E0DF91CF911F910F91FF90CB
:1006F000EF9008956115710549F0FB01019000200C
:10070000E9F73197AF01461B570BC8CF80E008953A
:10071000CF92DF92EF92FF920F931F93CF93DF93CD
:10072000CDB7DEB762970FB6F894DEBF0FBECDBF70
:100730008C01CB01F8011182108213821282158282
:1007400014824AE09E012F5F3F4F6901B901A1D396
:10075000F60101900020E9F731977F01EC18FD08C0
:10076000B701C80175DF811103C0C8015FDF07C091
:10077000F801F582E482B6018081918116D66296F5
:100780000FB6F894DEBF0FBECDBFDF91CF911F91A2
:100790000F91FF90EF90DF90CF9008951F920F92EE
:1007A0000FB60F9211242F933F938F939F93AF9384
:1007B000BF938091E1029091E202A091E302B09197
:1007C000E4023091E00223E0230F2D3720F401965C
:1007D000A11DB11D05C026E8230F0296A11DB11D64
:1007E0002093E0028093E1029093E202A093E3025F
:1007F000B093E4028091E5029091E602A091E702B5
:10080000B091E8020196A11DB11D8093E50290937D
:10081000E602A093E702B093E802BF91AF919F91E7
:100820008F913F912F910F900FBE0F901F901895B1
:100830001F920F920FB60F9211240BB60F922F93A7
:100840003F934F935F936F937F938F939F93AF9358
:10085000BF93EF93FF938091B900887F803609F4AE
:100860009CC068F5883209F45BC090F4803109F4CB
:1008700054C038F4882309F4F6C0883009F44DC018
:10088000F5C0883109F44CC0803209F45DC0EEC077
:10089000803409F468C048F4803309F455C08833C3
:1008A00009F0E4C08093A102D8C0803509F44FC09C
:1008B000883509F45DC0883409F0D8C0D6C08839BD
:1008C00009F4C7C0A8F4883709F467C038F488363B
:1008D00009F463C0803709F460C0C8C0883809F4DF
:1008E000B8C0803909F45FC0803809F0BFC05BC070
:1008F000803B09F486C038F4803A09F466C0883A2F
:1009000009F47FC0B3C0803C09F4A7C0883C09F457
:10091000A4C0883B09F48AC0A9C08091C40210C059
:100920009091C3028091C202981770F5E091C302C2
:1009300081E08E0F8093C302F0E0EE55FD4F808181
:100940008093BB0085EC86C08093A1028EC0E091AD
:10095000C30281E08E0F8093C3028091BB00F0E060
:10096000EE55FD4F80839091C3028091C2026EC00C
:10097000E091C30281E08E0F8093C3028091BB009F
:10098000F0E0EE55FD4F80838091CA0281116DC069
:1009900081E08093C90284EA61C083E08093CB0246
:1009A0001092A002CFCF8091A002803208F051C0F7
:1009B000E091A00281E08E0F8093A0028091BB00A5
:1009C000F0E0E058FD4F8083BDCF85EC8093BC0004
:1009D0001092CB028091A002803230F4E091A0020C
:1009E000F0E0E058FD4F10826091A00270E0E091CD
:1009F000C502F091C60280E892E019951092A0021B
:100A000035C084E08093CB0210927F0210927E0268
:100A1000E091C702F091C802199580917E02811180
:100A200005C081E080937E0210925E02E0917F0219
:100A300081E08E0F80937F02F0E0E25AFD4F8081CB
:100A40008093BB0090917F0280917E02981708F4FA
:100A500079CF85E88093BC0009C085EC8093BC0009
:100A60001092CB0203C01092A102BDDCFF91EF9166
:100A7000BF91AF919F918F917F916F915F914F91B6
:100A80003F912F910F900BBE0F900FBE0F901F90B4
:100A90001895CF93DF93CDB7DEB7E5970FB6F894EF
:100AA000DEBF0FBECDBF789484B5826084BD84B5AF
:100AB000816084BD85B5826085BD85B5816085BD59
:100AC00080916E00816080936E0010928100809111
:100AD0008100826080938100809181008160809399
:100AE0008100809180008160809380008091B100BE
:100AF00084608093B1008091B00081608093B000E9
:100B0000809191008260809391008091910081603A
:100B100080939100809190008160809390008091FB
:100B2000A10082608093A1008091A10081608093E8
:100B3000A1008091A00081608093A000809121019C
:100B40008260809321018091210181608093210145
:100B50008091200181608093200180917A008460DF
:100B600080937A0080917A00826080937A008091ED
:100B70007A00816080937A0080917A008068809307
:100B80007A001092C1001092CF021092CE02109201
:100B9000CD021092CC021092CB0281E08093CA0267
:100BA0001092C90284E157DB85E155DB8091B900E1
:100BB0008E7F8093B9008091B9008D7F8093B900BA
:100BC00088E48093B80085E48093BC0086EC91E0D3
:100BD0009093C8028093C70287EC91E09093C6027D
:100BE0008093C502AEDB6B017C0132E3832E912C36
:100BF000A12CB12CA6DBDC01CB018C199D09AE091F
:100C0000BF09883E9340A105B105A0F321E0821AF7
:100C10009108A108B10888EEC80E83E0D81EE11C37
:100C2000F11C81149104A104B10421F760E088E370
:100C300095DC60E08CE092DC60E081E08FDC8BE3AF
:100C40009FE10197F1F760E086E088DC2FB7F89428
:100C50008091E1029091E202A091E302B091E4025E
:100C60002FBF8093DC029093DD02A093DE02B0934D
:100C7000DF0298EE892E93E0992EA12CB12C20E171
:100C8000422E2EE0522E612C712C8E010F5F1F4FD1
:100C900080E0282E80E0382E19A618A61BA61AA6DA
:100CA0001DA61CA660E070E0CE018896D1DC811103
:100CB00004C0CE018896BADC07C01DA61CA66BE155
:100CC00072E088A599A571D38FB7F894C090E1021E
:100CD000D090E202E090E302F090E4028FBF8091B6
:100CE000DC029091DD02A091DE02B091DF02C81A11
:100CF000D90AEA0AFB0AC701B601A50194011DD170
:100D0000CA01B901A301920118D12CE330E040E0FF
:100D100050E013D12EA73FA748AB59AB6AAB7BABD2
:100D20008CAB9DABC701B60120E83EEE46E350E038
:100D300004D1B901C801ECDC88A599A5009739F068
:100D400069817A816115710509F084C0B8D1898102
:100D50009A8199A788A78B819C819BA78AA78D815F
:100D60009E819DA78CA71A82198289819A81A7D119
:100D700068E172E0CE018896BDDC6EA57FA5C80152
:100D8000C7DC4D815E8169817A81CE01889686DCDF
:100D900089819A8194D168E172E0CE018896AADCBB
:100DA0006AA97BA9C801B4DC4D815E8169817A8121
:100DB000CE01889673DC89819A8181D16AE172E0E3
:100DC000CE01889697DC1BA21AA21DA21CA21FA20C
:100DD0001EA2C701B601A5019401AFD02AE0A80167
:100DE00062D0F80101900020E9F731977F01E01A05
:100DF000F10AB701CE0182962BDC811104C0CE012D
:100E0000829614DC06C0FFA2EEA2B8018AA19BA1C3
:100E1000CCD24EA15FA16AA17BA1CE0188963EDC17
:100E20008AA19BA14CD160E080E898DBE8A4F9A4FA
:100E3000F70181917F01882319F060E48FDBF8CFFF
:100E400088A599A53CD12114310409F425CF0E942D
:100E500000001ECF4AA55BA52D813E814217530796
:100E600008F474CFA2D28D819E819DA78CA77DCFDF
:100E7000E0EDF2E01382128288EE93E0A0E0B0E0B1
:100E800084839583A683B7838AE092E091838083ED
:100E90000895BB274A3031F4992322F4BDE290959E
:100EA00081959F4F22C0BB27FA01A62F62177105BB
:100EB00081059105330B30FB66F0AA27660F771F7B
:100EC000881F991FAA1FA21710F0A21B6395385004
:100ED000A9F7A05DAA3308F0A95DA19336F7B11177
:100EE000B1931082CA0119C0BB27FB015527AA275D
:100EF000880F991FAA1FA41710F0A41B83955051A7
:100F0000B9F7A05DAA3308F0A95DA193009779F71E
:100F1000B111B1931192CB0100C0DC01FC01672F2C
:100F200071917723E1F7329704C07C916D937083C0
:100F30006291AE17BF07C8F30895A1E21A2EAA1B4B
:100F4000BB1BFD010DC0AA1FBB1FEE1FFF1FA21779
:100F5000B307E407F50720F0A21BB30BE40BF50B76
:100F6000661F771F881F991F1A9469F760957095FF
:100F7000809590959B01AC01BD01CF010895EE0FC6
:100F8000FF1F881F8BBF0790F691E02D19940F93D8
:100F90001F93CF93DF938230910510F482E090E0AD
:100FA000E091EB02F091EC0220E030E0A0E0B0E054
:100FB000309719F1408151810281138148175907F7
:100FC000C8F08417950769F4109731F012960C93C6
:100FD000129713961C9327C00093EB021093EC0218
:100FE00022C02115310519F04217530718F49A0150
:100FF000BD01EF01DF01F801DBCF21153105F9F06B
:10100000281B390B2430310580F48A819B816115BE
:10101000710521F0FB019383828304C09093EC025D
:101020008093EB02FE01329644C0FE01E20FF31FF3
:101030008193919322503109398328833AC02091BA
:10104000E9023091EA02232B41F42091020230910F
:1010500003023093EA022093E902209100023091CA
:1010600001022115310541F42DB73EB7409104022C
:1010700050910502241B350BE091E902F091EA0240
:10108000E217F307A0F42E1B3F0B2817390778F05F
:10109000AC014E5F5F4F2417350748F04E0F5F1FBE
:1010A0005093EA024093E9028193919302C0E0E0F9
:1010B000F0E0CF01DF91CF911F910F910895CF9371
:1010C000DF93009709F481C0FC01329713821282EA
:1010D000A091EB02B091EC02109781F42081318154
:1010E000820F931F2091E9023091EA0228173907F5
:1010F00051F5F093EA02E093E90267C0ED0120E0C8
:1011000030E0CE17DF0740F44A815B819E01411534
:101110005105F1F0EA01F5CFD383C28340815181BB
:10112000840F951FC817D90759F488819981840FB6
:10113000951F0296918380838A819B81938382830A
:101140002115310529F4F093EC02E093EB023DC048
:10115000E901FB83EA8349915991C40FD51FEC172C
:10116000FD0761F480819181840F951F0296E9014A
:1011700099838883828193819B838A83E0E0F0E076
:1011800012968D919C911397009719F0FD01DC0147
:10119000F7CF8D919C9111979D012E5F3F4F820F4C
:1011A000931F2091E9023091EA022817390769F468
:1011B000309729F41092EC021092EB0202C01382D5
:1011C0001282B093EA02A093E902DF91CF910895D1
:1011D0006F927F928F929F92AF92BF92CF92DF9247
:1011E000EF92FF920F931F93CF93DF93009781F4B9
:1011F000CB01DF91CF911F910F91FF90EF90DF9086
:10120000CF90BF90AF909F908F907F906F90BFCE08
:10121000FC01E60FF71F9C0122503109E217F3078A
:1012200008F4A5C0EC01D9010D911C911197061786
:101230001707A8F00530110508F497C0C8010497F6
:101240008617970708F491C002501109061B170B67
:10125000019311936D937C93CF0131DF86C05B01C5
:10126000A01AB10A4C01800E911EA091EB02B09120
:10127000EC02612C712CE12CF12C109709F446C082
:101280008D919C911197A815B905B1F56C0142E0BB
:10129000C40ED11CCA14DB0478F14C018A189B08D7
:1012A000640142E0C40ED11C1296BC9012971396B2
:1012B000AC91B5E0CB16D10440F0B282A383918209
:1012C0008082D9016D937C9309C00E5F1F4F800F00
:1012D000911FF90191838083EB2DFA2FE114F10422
:1012E00031F0D7011396FC93EE9312973EC0F09322
:1012F000EC02E093EB0239C06816790608F43C0171
:101300007D0112960D90BC91A02DB7CF8091E9027E
:101310009091EA0288169906E1F466167706C8F4F9
:101320008091000290910102009741F48DB79EB721
:101330004091040250910502841B950BE817F907B0
:10134000B0F4F093EA02E093E902F901718360835B
:101350000CC0CB011CDE7C01009749F0A801BE0146
:101360001BD0CE01ACDEC70104C0CE0102C080E0BC
:1013700090E0DF91CF911F910F91FF90EF90DF9060
:10138000CF90BF90AF909F908F907F906F90089577
:1013900081E090E0F89410C0FB01DC0102C00190F4
:1013A0000D9241505040D8F70895FB01DC010190A7
:0C13B0000D920020E1F70895F894FFCFA3
:1013BC000000ED028000000000007D025102AB0233
:0C13CC0025024902350226023A002E00DC
:00000001FF
